{
  "_format": "hh-sol-artifact-1",
  "contractName": "Lock",
  "sourceName": "contracts/Lock.sol",
  "abi": [
    {
      "inputs": [
        {
          "internalType": "address",
          "name": "tokenaAddress",
          "type": "address"
        }
      ],
      "stateMutability": "nonpayable",
      "type": "constructor"
    },
    {
      "inputs": [
        {
          "internalType": "address",
          "name": "",
          "type": "address"
        }
      ],
      "name": "deadline",
      "outputs": [
        {
          "internalType": "uint256",
          "name": "",
          "type": "uint256"
        }
      ],
      "stateMutability": "view",
      "type": "function"
    },
    {
      "inputs": [
        {
          "internalType": "uint256",
          "name": "amount",
          "type": "uint256"
        },
        {
          "internalType": "uint256",
          "name": "time",
          "type": "uint256"
        }
      ],
      "name": "lockTokens",
      "outputs": [],
      "stateMutability": "nonpayable",
      "type": "function"
    },
    {
      "inputs": [],
      "name": "lockerCount",
      "outputs": [
        {
          "internalType": "uint256",
          "name": "",
          "type": "uint256"
        }
      ],
      "stateMutability": "view",
      "type": "function"
    },
    {
      "inputs": [
        {
          "internalType": "address",
          "name": "",
          "type": "address"
        }
      ],
      "name": "lockers",
      "outputs": [
        {
          "internalType": "uint256",
          "name": "",
          "type": "uint256"
        }
      ],
      "stateMutability": "view",
      "type": "function"
    },
    {
      "inputs": [],
      "name": "totalLocked",
      "outputs": [
        {
          "internalType": "uint256",
          "name": "",
          "type": "uint256"
        }
      ],
      "stateMutability": "view",
      "type": "function"
    },
    {
      "inputs": [],
      "name": "withdrawTokens",
      "outputs": [],
      "stateMutability": "nonpayable",
      "type": "function"
    }
  ],
  "bytecode": "0x608060405234801561001057600080fd5b5060405162000fb738038062000fb7833981810160405281019061003491906100dd565b806000806101000a81548173ffffffffffffffffffffffffffffffffffffffff021916908373ffffffffffffffffffffffffffffffffffffffff1602179055505061010a565b600080fd5b600073ffffffffffffffffffffffffffffffffffffffff82169050919050565b60006100aa8261007f565b9050919050565b6100ba8161009f565b81146100c557600080fd5b50565b6000815190506100d7816100b1565b92915050565b6000602082840312156100f3576100f261007a565b5b6000610101848285016100c8565b91505092915050565b610e9d806200011a6000396000f3fe608060405234801561001057600080fd5b50600436106100625760003560e01c80632c8e7a21146100675780635403b3941461009757806356891412146100c757806389158d8e146100e55780638d8f2adb14610101578063ccd96eb61461010b575b600080fd5b610081600480360381019061007c919061085b565b610129565b60405161008e91906108a1565b60405180910390f35b6100b160048036038101906100ac919061085b565b610141565b6040516100be91906108a1565b60405180910390f35b6100cf610159565b6040516100dc91906108a1565b60405180910390f35b6100ff60048036038101906100fa91906108e8565b61015f565b005b6101096103fc565b005b61011361072a565b60405161012091906108a1565b60405180910390f35b60036020528060005260406000206000915090505481565b60046020528060005260406000206000915090505481565b60025481565b600082116101a2576040517f08c379a0000000000000000000000000000000000000000000000000000000008152600401610199906109ab565b60405180910390fd5b600081116101e5576040517f08c379a00000000000000000000000000000000000000000000000000000000081526004016101dc90610a3d565b60405180910390fd5b6000600360003373ffffffffffffffffffffffffffffffffffffffff1673ffffffffffffffffffffffffffffffffffffffff1681526020019081526020016000205411610245576001600081548092919061023f90610a8c565b91905055505b81600260008282546102579190610ad5565b9250508190555081600360003373ffffffffffffffffffffffffffffffffffffffff1673ffffffffffffffffffffffffffffffffffffffff16815260200190815260200160002060008282546102ad9190610ad5565b9250508190555080426102c09190610ad5565b600460003373ffffffffffffffffffffffffffffffffffffffff1673ffffffffffffffffffffffffffffffffffffffff1681526020019081526020016000208190555060008060009054906101000a900473ffffffffffffffffffffffffffffffffffffffff1673ffffffffffffffffffffffffffffffffffffffff166323b872dd3330866040518463ffffffff1660e01b815260040161036393929190610b3a565b602060405180830381600087803b15801561037d57600080fd5b505af1158015610391573d6000803e3d6000fd5b505050506040513d601f19601f820116820180604052508101906103b59190610ba9565b9050806103f7576040517f08c379a00000000000000000000000000000000000000000000000000000000081526004016103ee90610c22565b60405180910390fd5b505050565b6000600360003373ffffffffffffffffffffffffffffffffffffffff1673ffffffffffffffffffffffffffffffffffffffff168152602001908152602001600020541161047e576040517f08c379a000000000000000000000000000000000000000000000000000000000815260040161047590610c8e565b60405180910390fd5b600460003373ffffffffffffffffffffffffffffffffffffffff1673ffffffffffffffffffffffffffffffffffffffff16815260200190815260200160002054421015610500576040517f08c379a00000000000000000000000000000000000000000000000000000000081526004016104f790610cfa565b60405180910390fd5b6000600360003373ffffffffffffffffffffffffffffffffffffffff1673ffffffffffffffffffffffffffffffffffffffff1681526020019081526020016000205490506105846040518060400160405280601181526020017f616d6f756e7420766520616464726573730000000000000000000000000000008152508233610730565b600360003373ffffffffffffffffffffffffffffffffffffffff1673ffffffffffffffffffffffffffffffffffffffff16815260200190815260200160002060009055600460003373ffffffffffffffffffffffffffffffffffffffff1673ffffffffffffffffffffffffffffffffffffffff168152602001908152602001600020600090556001600081548092919061061d90610d1a565b919050555080600260008282546106349190610d44565b9250508190555060008054906101000a900473ffffffffffffffffffffffffffffffffffffffff1673ffffffffffffffffffffffffffffffffffffffff1663a9059cbb33836040518363ffffffff1660e01b8152600401610696929190610d78565b602060405180830381600087803b1580156106b057600080fd5b505af11580156106c4573d6000803e3d6000fd5b505050506040513d601f19601f820116820180604052508101906106e89190610ba9565b610727576040517f08c379a000000000000000000000000000000000000000000000000000000000815260040161071e90610c22565b60405180910390fd5b50565b60015481565b6107ca83838360405160240161074893929190610e29565b6040516020818303038152906040527f1c7ec448000000000000000000000000000000000000000000000000000000007bffffffffffffffffffffffffffffffffffffffffffffffffffffffff19166020820180517bffffffffffffffffffffffffffffffffffffffffffffffffffffffff83818316178352505050506107cf565b505050565b60008151905060006a636f6e736f6c652e6c6f679050602083016000808483855afa5050505050565b600080fd5b600073ffffffffffffffffffffffffffffffffffffffff82169050919050565b6000610828826107fd565b9050919050565b6108388161081d565b811461084357600080fd5b50565b6000813590506108558161082f565b92915050565b600060208284031215610871576108706107f8565b5b600061087f84828501610846565b91505092915050565b6000819050919050565b61089b81610888565b82525050565b60006020820190506108b66000830184610892565b92915050565b6108c581610888565b81146108d057600080fd5b50565b6000813590506108e2816108bc565b92915050565b600080604083850312156108ff576108fe6107f8565b5b600061090d858286016108d3565b925050602061091e858286016108d3565b9150509250929050565b600082825260208201905092915050565b7f546f6b656e20616d6f756e74206d75737420626520677265617465722074686160008201527f6e20300000000000000000000000000000000000000000000000000000000000602082015250565b6000610995602383610928565b91506109a082610939565b604082019050919050565b600060208201905081810360008301526109c481610988565b9050919050565b7f4c6f636b696e672074696d65206d75737420626520677265617465722074686160008201527f6e20300000000000000000000000000000000000000000000000000000000000602082015250565b6000610a27602383610928565b9150610a32826109cb565b604082019050919050565b60006020820190508181036000830152610a5681610a1a565b9050919050565b7f4e487b7100000000000000000000000000000000000000000000000000000000600052601160045260246000fd5b6000610a9782610888565b91507fffffffffffffffffffffffffffffffffffffffffffffffffffffffffffffffff821415610aca57610ac9610a5d565b5b600182019050919050565b6000610ae082610888565b9150610aeb83610888565b9250827fffffffffffffffffffffffffffffffffffffffffffffffffffffffffffffffff03821115610b2057610b1f610a5d565b5b828201905092915050565b610b348161081d565b82525050565b6000606082019050610b4f6000830186610b2b565b610b5c6020830185610b2b565b610b696040830184610892565b949350505050565b60008115159050919050565b610b8681610b71565b8114610b9157600080fd5b50565b600081519050610ba381610b7d565b92915050565b600060208284031215610bbf57610bbe6107f8565b5b6000610bcd84828501610b94565b91505092915050565b7f5472616e73666572206661696c65642e00000000000000000000000000000000600082015250565b6000610c0c601083610928565b9150610c1782610bd6565b602082019050919050565b60006020820190508181036000830152610c3b81610bff565b9050919050565b7f546f6b656e20616d6f756e742069732030000000000000000000000000000000600082015250565b6000610c78601183610928565b9150610c8382610c42565b602082019050919050565b60006020820190508181036000830152610ca781610c6b565b9050919050565b7f446561646c696e65206973206e6f74206f766572000000000000000000000000600082015250565b6000610ce4601483610928565b9150610cef82610cae565b602082019050919050565b60006020820190508181036000830152610d1381610cd7565b9050919050565b6000610d2582610888565b91506000821415610d3957610d38610a5d565b5b600182039050919050565b6000610d4f82610888565b9150610d5a83610888565b925082821015610d6d57610d6c610a5d565b5b828203905092915050565b6000604082019050610d8d6000830185610b2b565b610d9a6020830184610892565b9392505050565b600081519050919050565b60005b83811015610dca578082015181840152602081019050610daf565b83811115610dd9576000848401525b50505050565b6000601f19601f8301169050919050565b6000610dfb82610da1565b610e058185610928565b9350610e15818560208601610dac565b610e1e81610ddf565b840191505092915050565b60006060820190508181036000830152610e438186610df0565b9050610e526020830185610892565b610e5f6040830184610b2b565b94935050505056fea264697066735822122074a11b914825faa1b0f26c7793d5e2db4c33c62f5172683ee9000c7c858d816164736f6c63430008090033",
  "linkReferences": {},
  "deployedLinkReferences": {}
}