{
  "_format": "hh-sol-artifact-1",
  "contractName": "Lock",
  "sourceName": "contracts/Lock.sol",
  "abi": [
    {
      "inputs": [
        {
          "internalType": "address",
          "name": "tokenaAddress",
          "type": "address"
        }
      ],
      "stateMutability": "nonpayable",
      "type": "constructor"
    },
    {
      "inputs": [
        {
          "internalType": "uint256",
          "name": "amount",
          "type": "uint256"
        }
      ],
      "name": "lockTokens",
      "outputs": [],
      "stateMutability": "nonpayable",
      "type": "function"
    },
    {
      "inputs": [],
      "name": "lockerCount",
      "outputs": [
        {
          "internalType": "uint256",
          "name": "",
          "type": "uint256"
        }
      ],
      "stateMutability": "view",
      "type": "function"
    },
    {
      "inputs": [
        {
          "internalType": "address",
          "name": "",
          "type": "address"
        }
      ],
      "name": "lockers",
      "outputs": [
        {
          "internalType": "uint256",
          "name": "",
          "type": "uint256"
        }
      ],
      "stateMutability": "view",
      "type": "function"
    },
    {
      "inputs": [],
      "name": "totalLocked",
      "outputs": [
        {
          "internalType": "uint256",
          "name": "",
          "type": "uint256"
        }
      ],
      "stateMutability": "view",
      "type": "function"
    },
    {
      "inputs": [],
      "name": "withdrawTokens",
      "outputs": [],
      "stateMutability": "nonpayable",
      "type": "function"
    }
  ],
  "bytecode": "0x608060405234801561001057600080fd5b50604051610b2a380380610b2a833981810160405281019061003291906100db565b806000806101000a81548173ffffffffffffffffffffffffffffffffffffffff021916908373ffffffffffffffffffffffffffffffffffffffff16021790555050610108565b600080fd5b600073ffffffffffffffffffffffffffffffffffffffff82169050919050565b60006100a88261007d565b9050919050565b6100b88161009d565b81146100c357600080fd5b50565b6000815190506100d5816100af565b92915050565b6000602082840312156100f1576100f0610078565b5b60006100ff848285016100c6565b91505092915050565b610a13806101176000396000f3fe608060405234801561001057600080fd5b50600436106100575760003560e01c80632c8e7a211461005c578063568914121461008c5780636e27d889146100aa5780638d8f2adb146100c6578063ccd96eb6146100d0575b600080fd5b610076600480360381019061007191906105a8565b6100ee565b60405161008391906105ee565b60405180910390f35b610094610106565b6040516100a191906105ee565b60405180910390f35b6100c460048036038101906100bf9190610635565b61010c565b005b6100ce610316565b005b6100d861053f565b6040516100e591906105ee565b60405180910390f35b60036020528060005260406000206000915090505481565b60025481565b6000811161014f576040517f08c379a0000000000000000000000000000000000000000000000000000000008152600401610146906106e5565b60405180910390fd5b6000600360003373ffffffffffffffffffffffffffffffffffffffff1673ffffffffffffffffffffffffffffffffffffffff16815260200190815260200160002054116101af57600160008154809291906101a990610734565b91905055505b80600260008282546101c1919061077d565b9250508190555080600360003373ffffffffffffffffffffffffffffffffffffffff1673ffffffffffffffffffffffffffffffffffffffff1681526020019081526020016000206000828254610217919061077d565b9250508190555060008060009054906101000a900473ffffffffffffffffffffffffffffffffffffffff1673ffffffffffffffffffffffffffffffffffffffff166323b872dd3330856040518463ffffffff1660e01b815260040161027e939291906107e2565b602060405180830381600087803b15801561029857600080fd5b505af11580156102ac573d6000803e3d6000fd5b505050506040513d601f19601f820116820180604052508101906102d09190610851565b905080610312576040517f08c379a0000000000000000000000000000000000000000000000000000000008152600401610309906108ca565b60405180910390fd5b5050565b6000600360003373ffffffffffffffffffffffffffffffffffffffff1673ffffffffffffffffffffffffffffffffffffffff1681526020019081526020016000205411610398576040517f08c379a000000000000000000000000000000000000000000000000000000000815260040161038f90610936565b60405180910390fd5b6000600360003373ffffffffffffffffffffffffffffffffffffffff1673ffffffffffffffffffffffffffffffffffffffff168152602001908152602001600020549050600360003373ffffffffffffffffffffffffffffffffffffffff1673ffffffffffffffffffffffffffffffffffffffff168152602001908152602001600020600090556001600081548092919061043290610956565b919050555080600260008282546104499190610980565b9250508190555060008054906101000a900473ffffffffffffffffffffffffffffffffffffffff1673ffffffffffffffffffffffffffffffffffffffff1663a9059cbb33836040518363ffffffff1660e01b81526004016104ab9291906109b4565b602060405180830381600087803b1580156104c557600080fd5b505af11580156104d9573d6000803e3d6000fd5b505050506040513d601f19601f820116820180604052508101906104fd9190610851565b61053c576040517f08c379a0000000000000000000000000000000000000000000000000000000008152600401610533906108ca565b60405180910390fd5b50565b60015481565b600080fd5b600073ffffffffffffffffffffffffffffffffffffffff82169050919050565b60006105758261054a565b9050919050565b6105858161056a565b811461059057600080fd5b50565b6000813590506105a28161057c565b92915050565b6000602082840312156105be576105bd610545565b5b60006105cc84828501610593565b91505092915050565b6000819050919050565b6105e8816105d5565b82525050565b600060208201905061060360008301846105df565b92915050565b610612816105d5565b811461061d57600080fd5b50565b60008135905061062f81610609565b92915050565b60006020828403121561064b5761064a610545565b5b600061065984828501610620565b91505092915050565b600082825260208201905092915050565b7f546f6b656e20616d6f756e74206d75737420626520677265617465722074686160008201527f6e20300000000000000000000000000000000000000000000000000000000000602082015250565b60006106cf602383610662565b91506106da82610673565b604082019050919050565b600060208201905081810360008301526106fe816106c2565b9050919050565b7f4e487b7100000000000000000000000000000000000000000000000000000000600052601160045260246000fd5b600061073f826105d5565b91507fffffffffffffffffffffffffffffffffffffffffffffffffffffffffffffffff82141561077257610771610705565b5b600182019050919050565b6000610788826105d5565b9150610793836105d5565b9250827fffffffffffffffffffffffffffffffffffffffffffffffffffffffffffffffff038211156107c8576107c7610705565b5b828201905092915050565b6107dc8161056a565b82525050565b60006060820190506107f760008301866107d3565b61080460208301856107d3565b61081160408301846105df565b949350505050565b60008115159050919050565b61082e81610819565b811461083957600080fd5b50565b60008151905061084b81610825565b92915050565b60006020828403121561086757610866610545565b5b60006108758482850161083c565b91505092915050565b7f5472616e73666572206661696c65642e00000000000000000000000000000000600082015250565b60006108b4601083610662565b91506108bf8261087e565b602082019050919050565b600060208201905081810360008301526108e3816108a7565b9050919050565b7f546f6b656e20616d6f756e742069732030000000000000000000000000000000600082015250565b6000610920601183610662565b915061092b826108ea565b602082019050919050565b6000602082019050818103600083015261094f81610913565b9050919050565b6000610961826105d5565b9150600082141561097557610974610705565b5b600182039050919050565b600061098b826105d5565b9150610996836105d5565b9250828210156109a9576109a8610705565b5b828203905092915050565b60006040820190506109c960008301856107d3565b6109d660208301846105df565b939250505056fea26469706673582212204efecbe8be1bd507eaf02104e121b793413227424a885541ef2ce5f84d4f491e64736f6c63430008090033",
  "linkReferences": {},
  "deployedLinkReferences": {}
}